{
  "_format": "hh-sol-artifact-1",
  "contractName": "ConfidentialUSDC",
  "sourceName": "contracts/tokens/ConfidentialUSDC.sol",
  "abi": [
    {
      "inputs": [
        {
          "internalType": "contract IERC20",
          "name": "usdc",
          "type": "address"
        }
      ],
      "stateMutability": "nonpayable",
      "type": "constructor"
    },
    {
      "inputs": [
        {
          "internalType": "uint256",
          "name": "requestId",
          "type": "uint256"
        }
      ],
      "name": "ERC7984InvalidGatewayRequest",
      "type": "error"
    },
    {
      "inputs": [
        {
          "internalType": "address",
          "name": "receiver",
          "type": "address"
        }
      ],
      "name": "ERC7984InvalidReceiver",
      "type": "error"
    },
    {
      "inputs": [
        {
          "internalType": "address",
          "name": "sender",
          "type": "address"
        }
      ],
      "name": "ERC7984InvalidSender",
      "type": "error"
    },
    {
      "inputs": [],
      "name": "ERC7984TotalSupplyOverflow",
      "type": "error"
    },
    {
      "inputs": [
        {
          "internalType": "address",
          "name": "caller",
          "type": "address"
        }
      ],
      "name": "ERC7984UnauthorizedCaller",
      "type": "error"
    },
    {
      "inputs": [
        {
          "internalType": "address",
          "name": "holder",
          "type": "address"
        },
        {
          "internalType": "address",
          "name": "spender",
          "type": "address"
        }
      ],
      "name": "ERC7984UnauthorizedSpender",
      "type": "error"
    },
    {
      "inputs": [
        {
          "internalType": "euint64",
          "name": "amount",
          "type": "bytes32"
        },
        {
          "internalType": "address",
          "name": "user",
          "type": "address"
        }
      ],
      "name": "ERC7984UnauthorizedUseOfEncryptedAmount",
      "type": "error"
    },
    {
      "inputs": [
        {
          "internalType": "address",
          "name": "holder",
          "type": "address"
        }
      ],
      "name": "ERC7984ZeroBalance",
      "type": "error"
    },
    {
      "inputs": [],
      "name": "InvalidKMSSignatures",
      "type": "error"
    },
    {
      "inputs": [
        {
          "internalType": "euint64",
          "name": "amount",
          "type": "bytes32"
        }
      ],
      "name": "InvalidUnwrapRequest",
      "type": "error"
    },
    {
      "inputs": [
        {
          "internalType": "uint8",
          "name": "bits",
          "type": "uint8"
        },
        {
          "internalType": "uint256",
          "name": "value",
          "type": "uint256"
        }
      ],
      "name": "SafeCastOverflowedUintDowncast",
      "type": "error"
    },
    {
      "inputs": [
        {
          "internalType": "address",
          "name": "token",
          "type": "address"
        }
      ],
      "name": "SafeERC20FailedOperation",
      "type": "error"
    },
    {
      "inputs": [
        {
          "internalType": "bytes32",
          "name": "handle",
          "type": "bytes32"
        },
        {
          "internalType": "address",
          "name": "sender",
          "type": "address"
        }
      ],
      "name": "SenderNotAllowedToUseHandle",
      "type": "error"
    },
    {
      "inputs": [],
      "name": "ZamaProtocolUnsupported",
      "type": "error"
    },
    {
      "anonymous": false,
      "inputs": [
        {
          "indexed": true,
          "internalType": "euint64",
          "name": "encryptedAmount",
          "type": "bytes32"
        },
        {
          "indexed": true,
          "internalType": "address",
          "name": "requester",
          "type": "address"
        }
      ],
      "name": "AmountDiscloseRequested",
      "type": "event"
    },
    {
      "anonymous": false,
      "inputs": [
        {
          "indexed": true,
          "internalType": "euint64",
          "name": "encryptedAmount",
          "type": "bytes32"
        },
        {
          "indexed": false,
          "internalType": "uint64",
          "name": "amount",
          "type": "uint64"
        }
      ],
      "name": "AmountDisclosed",
      "type": "event"
    },
    {
      "anonymous": false,
      "inputs": [
        {
          "indexed": true,
          "internalType": "address",
          "name": "from",
          "type": "address"
        },
        {
          "indexed": true,
          "internalType": "address",
          "name": "to",
          "type": "address"
        },
        {
          "indexed": true,
          "internalType": "euint64",
          "name": "amount",
          "type": "bytes32"
        }
      ],
      "name": "ConfidentialTransfer",
      "type": "event"
    },
    {
      "anonymous": false,
      "inputs": [
        {
          "indexed": true,
          "internalType": "address",
          "name": "holder",
          "type": "address"
        },
        {
          "indexed": true,
          "internalType": "address",
          "name": "operator",
          "type": "address"
        },
        {
          "indexed": false,
          "internalType": "uint48",
          "name": "until",
          "type": "uint48"
        }
      ],
      "name": "OperatorSet",
      "type": "event"
    },
    {
      "anonymous": false,
      "inputs": [
        {
          "indexed": false,
          "internalType": "bytes32[]",
          "name": "handlesList",
          "type": "bytes32[]"
        },
        {
          "indexed": false,
          "internalType": "bytes",
          "name": "abiEncodedCleartexts",
          "type": "bytes"
        }
      ],
      "name": "PublicDecryptionVerified",
      "type": "event"
    },
    {
      "anonymous": false,
      "inputs": [
        {
          "indexed": true,
          "internalType": "address",
          "name": "receiver",
          "type": "address"
        },
        {
          "indexed": false,
          "internalType": "euint64",
          "name": "encryptedAmount",
          "type": "bytes32"
        },
        {
          "indexed": false,
          "internalType": "uint64",
          "name": "cleartextAmount",
          "type": "uint64"
        }
      ],
      "name": "UnwrapFinalized",
      "type": "event"
    },
    {
      "anonymous": false,
      "inputs": [
        {
          "indexed": true,
          "internalType": "address",
          "name": "receiver",
          "type": "address"
        },
        {
          "indexed": false,
          "internalType": "euint64",
          "name": "amount",
          "type": "bytes32"
        }
      ],
      "name": "UnwrapRequested",
      "type": "event"
    },
    {
      "inputs": [
        {
          "internalType": "address",
          "name": "account",
          "type": "address"
        }
      ],
      "name": "confidentialBalanceOf",
      "outputs": [
        {
          "internalType": "euint64",
          "name": "",
          "type": "bytes32"
        }
      ],
      "stateMutability": "view",
      "type": "function"
    },
    {
      "inputs": [],
      "name": "confidentialProtocolId",
      "outputs": [
        {
          "internalType": "uint256",
          "name": "",
          "type": "uint256"
        }
      ],
      "stateMutability": "view",
      "type": "function"
    },
    {
      "inputs": [],
      "name": "confidentialTotalSupply",
      "outputs": [
        {
          "internalType": "euint64",
          "name": "",
          "type": "bytes32"
        }
      ],
      "stateMutability": "view",
      "type": "function"
    },
    {
      "inputs": [
        {
          "internalType": "address",
          "name": "to",
          "type": "address"
        },
        {
          "internalType": "externalEuint64",
          "name": "encryptedAmount",
          "type": "bytes32"
        },
        {
          "internalType": "bytes",
          "name": "inputProof",
          "type": "bytes"
        }
      ],
      "name": "confidentialTransfer",
      "outputs": [
        {
          "internalType": "euint64",
          "name": "",
          "type": "bytes32"
        }
      ],
      "stateMutability": "nonpayable",
      "type": "function"
    },
    {
      "inputs": [
        {
          "internalType": "address",
          "name": "to",
          "type": "address"
        },
        {
          "internalType": "euint64",
          "name": "amount",
          "type": "bytes32"
        }
      ],
      "name": "confidentialTransfer",
      "outputs": [
        {
          "internalType": "euint64",
          "name": "",
          "type": "bytes32"
        }
      ],
      "stateMutability": "nonpayable",
      "type": "function"
    },
    {
      "inputs": [
        {
          "internalType": "address",
          "name": "to",
          "type": "address"
        },
        {
          "internalType": "euint64",
          "name": "amount",
          "type": "bytes32"
        },
        {
          "internalType": "bytes",
          "name": "data",
          "type": "bytes"
        }
      ],
      "name": "confidentialTransferAndCall",
      "outputs": [
        {
          "internalType": "euint64",
          "name": "transferred",
          "type": "bytes32"
        }
      ],
      "stateMutability": "nonpayable",
      "type": "function"
    },
    {
      "inputs": [
        {
          "internalType": "address",
          "name": "to",
          "type": "address"
        },
        {
          "internalType": "externalEuint64",
          "name": "encryptedAmount",
          "type": "bytes32"
        },
        {
          "internalType": "bytes",
          "name": "inputProof",
          "type": "bytes"
        },
        {
          "internalType": "bytes",
          "name": "data",
          "type": "bytes"
        }
      ],
      "name": "confidentialTransferAndCall",
      "outputs": [
        {
          "internalType": "euint64",
          "name": "transferred",
          "type": "bytes32"
        }
      ],
      "stateMutability": "nonpayable",
      "type": "function"
    },
    {
      "inputs": [
        {
          "internalType": "address",
          "name": "from",
          "type": "address"
        },
        {
          "internalType": "address",
          "name": "to",
          "type": "address"
        },
        {
          "internalType": "externalEuint64",
          "name": "encryptedAmount",
          "type": "bytes32"
        },
        {
          "internalType": "bytes",
          "name": "inputProof",
          "type": "bytes"
        }
      ],
      "name": "confidentialTransferFrom",
      "outputs": [
        {
          "internalType": "euint64",
          "name": "transferred",
          "type": "bytes32"
        }
      ],
      "stateMutability": "nonpayable",
      "type": "function"
    },
    {
      "inputs": [
        {
          "internalType": "address",
          "name": "from",
          "type": "address"
        },
        {
          "internalType": "address",
          "name": "to",
          "type": "address"
        },
        {
          "internalType": "euint64",
          "name": "amount",
          "type": "bytes32"
        }
      ],
      "name": "confidentialTransferFrom",
      "outputs": [
        {
          "internalType": "euint64",
          "name": "transferred",
          "type": "bytes32"
        }
      ],
      "stateMutability": "nonpayable",
      "type": "function"
    },
    {
      "inputs": [
        {
          "internalType": "address",
          "name": "from",
          "type": "address"
        },
        {
          "internalType": "address",
          "name": "to",
          "type": "address"
        },
        {
          "internalType": "externalEuint64",
          "name": "encryptedAmount",
          "type": "bytes32"
        },
        {
          "internalType": "bytes",
          "name": "inputProof",
          "type": "bytes"
        },
        {
          "internalType": "bytes",
          "name": "data",
          "type": "bytes"
        }
      ],
      "name": "confidentialTransferFromAndCall",
      "outputs": [
        {
          "internalType": "euint64",
          "name": "transferred",
          "type": "bytes32"
        }
      ],
      "stateMutability": "nonpayable",
      "type": "function"
    },
    {
      "inputs": [
        {
          "internalType": "address",
          "name": "from",
          "type": "address"
        },
        {
          "internalType": "address",
          "name": "to",
          "type": "address"
        },
        {
          "internalType": "euint64",
          "name": "amount",
          "type": "bytes32"
        },
        {
          "internalType": "bytes",
          "name": "data",
          "type": "bytes"
        }
      ],
      "name": "confidentialTransferFromAndCall",
      "outputs": [
        {
          "internalType": "euint64",
          "name": "transferred",
          "type": "bytes32"
        }
      ],
      "stateMutability": "nonpayable",
      "type": "function"
    },
    {
      "inputs": [],
      "name": "contractURI",
      "outputs": [
        {
          "internalType": "string",
          "name": "",
          "type": "string"
        }
      ],
      "stateMutability": "view",
      "type": "function"
    },
    {
      "inputs": [],
      "name": "decimals",
      "outputs": [
        {
          "internalType": "uint8",
          "name": "",
          "type": "uint8"
        }
      ],
      "stateMutability": "view",
      "type": "function"
    },
    {
      "inputs": [
        {
          "internalType": "euint64",
          "name": "encryptedAmount",
          "type": "bytes32"
        },
        {
          "internalType": "uint64",
          "name": "cleartextAmount",
          "type": "uint64"
        },
        {
          "internalType": "bytes",
          "name": "decryptionProof",
          "type": "bytes"
        }
      ],
      "name": "discloseEncryptedAmount",
      "outputs": [],
      "stateMutability": "nonpayable",
      "type": "function"
    },
    {
      "inputs": [
        {
          "internalType": "euint64",
          "name": "burntAmount",
          "type": "bytes32"
        },
        {
          "internalType": "uint64",
          "name": "burntAmountCleartext",
          "type": "uint64"
        },
        {
          "internalType": "bytes",
          "name": "decryptionProof",
          "type": "bytes"
        }
      ],
      "name": "finalizeUnwrap",
      "outputs": [],
      "stateMutability": "nonpayable",
      "type": "function"
    },
    {
      "inputs": [],
      "name": "inferredTotalSupply",
      "outputs": [
        {
          "internalType": "uint256",
          "name": "",
          "type": "uint256"
        }
      ],
      "stateMutability": "view",
      "type": "function"
    },
    {
      "inputs": [
        {
          "internalType": "address",
          "name": "holder",
          "type": "address"
        },
        {
          "internalType": "address",
          "name": "spender",
          "type": "address"
        }
      ],
      "name": "isOperator",
      "outputs": [
        {
          "internalType": "bool",
          "name": "",
          "type": "bool"
        }
      ],
      "stateMutability": "view",
      "type": "function"
    },
    {
      "inputs": [],
      "name": "maxTotalSupply",
      "outputs": [
        {
          "internalType": "uint256",
          "name": "",
          "type": "uint256"
        }
      ],
      "stateMutability": "view",
      "type": "function"
    },
    {
      "inputs": [],
      "name": "name",
      "outputs": [
        {
          "internalType": "string",
          "name": "",
          "type": "string"
        }
      ],
      "stateMutability": "view",
      "type": "function"
    },
    {
      "inputs": [
        {
          "internalType": "address",
          "name": "",
          "type": "address"
        },
        {
          "internalType": "address",
          "name": "from",
          "type": "address"
        },
        {
          "internalType": "uint256",
          "name": "amount",
          "type": "uint256"
        },
        {
          "internalType": "bytes",
          "name": "data",
          "type": "bytes"
        }
      ],
      "name": "onTransferReceived",
      "outputs": [
        {
          "internalType": "bytes4",
          "name": "",
          "type": "bytes4"
        }
      ],
      "stateMutability": "nonpayable",
      "type": "function"
    },
    {
      "inputs": [],
      "name": "rate",
      "outputs": [
        {
          "internalType": "uint256",
          "name": "",
          "type": "uint256"
        }
      ],
      "stateMutability": "view",
      "type": "function"
    },
    {
      "inputs": [
        {
          "internalType": "euint64",
          "name": "encryptedAmount",
          "type": "bytes32"
        }
      ],
      "name": "requestDiscloseEncryptedAmount",
      "outputs": [],
      "stateMutability": "nonpayable",
      "type": "function"
    },
    {
      "inputs": [
        {
          "internalType": "address",
          "name": "operator",
          "type": "address"
        },
        {
          "internalType": "uint48",
          "name": "until",
          "type": "uint48"
        }
      ],
      "name": "setOperator",
      "outputs": [],
      "stateMutability": "nonpayable",
      "type": "function"
    },
    {
      "inputs": [
        {
          "internalType": "bytes4",
          "name": "interfaceId",
          "type": "bytes4"
        }
      ],
      "name": "supportsInterface",
      "outputs": [
        {
          "internalType": "bool",
          "name": "",
          "type": "bool"
        }
      ],
      "stateMutability": "view",
      "type": "function"
    },
    {
      "inputs": [],
      "name": "symbol",
      "outputs": [
        {
          "internalType": "string",
          "name": "",
          "type": "string"
        }
      ],
      "stateMutability": "view",
      "type": "function"
    },
    {
      "inputs": [],
      "name": "underlying",
      "outputs": [
        {
          "internalType": "contract IERC20",
          "name": "",
          "type": "address"
        }
      ],
      "stateMutability": "view",
      "type": "function"
    },
    {
      "inputs": [],
      "name": "underlyingToken",
      "outputs": [
        {
          "internalType": "address",
          "name": "",
          "type": "address"
        }
      ],
      "stateMutability": "view",
      "type": "function"
    },
    {
      "inputs": [
        {
          "internalType": "address",
          "name": "from",
          "type": "address"
        },
        {
          "internalType": "address",
          "name": "to",
          "type": "address"
        },
        {
          "internalType": "externalEuint64",
          "name": "encryptedAmount",
          "type": "bytes32"
        },
        {
          "internalType": "bytes",
          "name": "inputProof",
          "type": "bytes"
        }
      ],
      "name": "unwrap",
      "outputs": [],
      "stateMutability": "nonpayable",
      "type": "function"
    },
    {
      "inputs": [
        {
          "internalType": "address",
          "name": "from",
          "type": "address"
        },
        {
          "internalType": "address",
          "name": "to",
          "type": "address"
        },
        {
          "internalType": "euint64",
          "name": "amount",
          "type": "bytes32"
        }
      ],
      "name": "unwrap",
      "outputs": [],
      "stateMutability": "nonpayable",
      "type": "function"
    },
    {
      "inputs": [
        {
          "internalType": "address",
          "name": "to",
          "type": "address"
        },
        {
          "internalType": "uint256",
          "name": "amount",
          "type": "uint256"
        }
      ],
      "name": "wrap",
      "outputs": [],
      "stateMutability": "nonpayable",
      "type": "function"
    }
  ],
  "bytecode": "0x60e060405234801561000f575f5ffd5b5060405161306d38038061306d83398101604081905261002e91610440565b8060405180604001604052806011815260200170436f6e666964656e7469616c205553444360781b81525060405180604001604052806005815260200164635553444360d81b81525060405180606001604052806021815260200161304c60219139600361009c8482610505565b5060046100a98382610505565b5060056100b68282610505565b5050506001600160a01b038216608052505f6100d1826101d4565b9050600660ff82168110156101045760ff811660a0526100f181836105d3565b6100fc90600a6106d5565b60c052610111565b60ff821660a052600160c0525b5050506101ce61012561029160201b60201c565b80517f9e7b61f58c47dc699ac88507c4f5bb9f121c03808c5676a8078fe583e464970080546001600160a01b03199081166001600160a01b039384161790915560208301517f9e7b61f58c47dc699ac88507c4f5bb9f121c03808c5676a8078fe583e46497018054831691841691909117905560408301517f9e7b61f58c47dc699ac88507c4f5bb9f121c03808c5676a8078fe583e46497028054909216921691909117905550565b50610719565b60408051600481526024810182526020810180516001600160e01b031663313ce56760e01b17905290515f91829182916001600160a01b0386169161021991906106e3565b5f60405180830381855afa9150503d805f8114610251576040519150601f19603f3d011682016040523d82523d5f602084013e610256565b606091505b5091509150818015610269575080516020145b1561028a578080602001905181019061028291906106f9565b949350505050565b6012610282565b604080516060810182525f80825260208201819052918101919091524660010361032a575060408051606080820183525f8083526020808401829052928401528251908101835273ca2e8f1f656cd25c01f05d0b243ab1ecd4a8ffb6815273d82385dada1ae3e969447f20a3164f6213100e75918101919091527377627828a55156b04ac0dc0eb30467f1a552bb039181019190915290565b4662aa36a7036103a9575060408051606080820183525f8083526020808401829052928401528251908101835273f0ffdc93b7e186bc2f8cb3daa75d86d1930a433d81527392c920834ec8941d2c77d188936e1f7a6f49c1279181019190915273be0e383937d564d7ff0bc3b46c51f0bf8d5c311a9181019190915290565b46617a6903610427575060408051606080820183525f808352602080840182905292840152825190810183527350157cffd6bbfa2dece204a89ec419c23ef5755d815273e3a9105a3a932253a70f126eb1e3b589c643dd249181019190915273be0e383937d564d7ff0bc3b46c51f0bf8d5c311a9181019190915290565b6040516373cac13b60e01b815260040160405180910390fd5b5f60208284031215610450575f5ffd5b81516001600160a01b0381168114610466575f5ffd5b9392505050565b634e487b7160e01b5f52604160045260245ffd5b600181811c9082168061049557607f821691505b6020821081036104b357634e487b7160e01b5f52602260045260245ffd5b50919050565b601f82111561050057805f5260205f20601f840160051c810160208510156104de5750805b601f840160051c820191505b818110156104fd575f81556001016104ea565b50505b505050565b81516001600160401b0381111561051e5761051e61046d565b6105328161052c8454610481565b846104b9565b6020601f821160018114610564575f831561054d5750848201515b5f19600385901b1c1916600184901b1784556104fd565b5f84815260208120601f198516915b828110156105935787850151825560209485019460019092019101610573565b50848210156105b057868401515f19600387901b60f8161c191681555b50505050600190811b01905550565b634e487b7160e01b5f52601160045260245ffd5b60ff82811682821603908111156105ec576105ec6105bf565b92915050565b6001815b600184111561062d57808504811115610611576106116105bf565b600184161561061f57908102905b60019390931c9280026105f6565b935093915050565b5f82610643575060016105ec565b8161064f57505f6105ec565b8160018114610665576002811461066f5761068b565b60019150506105ec565b60ff841115610680576106806105bf565b50506001821b6105ec565b5060208310610133831016604e8410600b84101617156106ae575081810a6105ec565b6106ba5f1984846105f2565b805f19048211156106cd576106cd6105bf565b029392505050565b5f61046660ff841683610635565b5f82518060208501845e5f920191825250919050565b5f60208284031215610709575f5ffd5b815160ff81168114610466575f5ffd5b60805160a05160c0516128b56107975f395f8181610266015281816107f2015281816109a4015281816109df01528181610bd501528181610c180152610f4801525f6102a401525f818161021401528181610361015281816107cd0152818161092a01528181610a1101528181610baf0152610f6901526128b55ff3fe608060405234801561000f575f5ffd5b50600436106101d1575f3560e01c806388a7ca5c116100fe578063d4febb961161009e578063e8a3d4851161006e578063e8a3d48514610459578063e8c15fd414610461578063eb3155b514610474578063f89d30b114610487575f5ffd5b8063d4febb961461040d578063d806180614610420578063de64211914610433578063e064b9bb14610446575f5ffd5b8063b1af281e116100d9578063b1af281e146103c1578063b6363cf2146103d4578063bf376c7a146103e7578063c7b8a75e146103fa575f5ffd5b806388a7ca5c146103855780638927b030146103b157806395d89b41146103b9575f5ffd5b8063344ff101116101745780635bb67a05116101445780635bb67a05146103245780635bebed7e146103395780635bf4ef061461034c5780636f307dc31461035f575f5ffd5b8063344ff101146102ce57806334c45743146102f6578063537d3c5014610309578063540952271461031c575f5ffd5b80632ab4d052116101af5780632ab4d0521461024c5780632c4e722e146102645780632fb74e621461028a578063313ce5671461029d575f5ffd5b806301ffc9a7146101d557806306fdde03146101fd5780632495a59914610212575b5f5ffd5b6101e86101e33660046121df565b61048f565b60405190151581526020015b60405180910390f35b6102056104c5565b6040516101f49190612234565b7f00000000000000000000000000000000000000000000000000000000000000005b6040516001600160a01b0390911681526020016101f4565b67ffffffffffffffff5b6040519081526020016101f4565b7f0000000000000000000000000000000000000000000000000000000000000000610256565b61025661029836600461229f565b61055a565b60405160ff7f00000000000000000000000000000000000000000000000000000000000000001681526020016101f4565b6102566102dc3660046122f5565b6001600160a01b03165f9081526020819052604090205490565b61025661030436600461230e565b6105ad565b61025661031736600461229f565b610656565b600254610256565b6103376103323660046123a7565b6106b8565b005b6102566103473660046123f3565b61087c565b61033761035a36600461241b565b6108ce565b7f0000000000000000000000000000000000000000000000000000000000000000610234565b61039861039336600461241b565b61091e565b6040516001600160e01b031990911681526020016101f4565b610256610a4b565b610205610a54565b6103376103cf3660046123a7565b610a63565b6101e86103e2366004612485565b610b58565b6103376103f53660046123f3565b610baa565b61025661040836600461241b565b610c42565b61033761041b3660046124ad565b610ce5565b61033761042e3660046124ec565b610cf4565b610256610441366004612503565b610d6c565b61025661045436600461241b565b610dc8565b610205610e4d565b61033761046f36600461258c565b610e5c565b61025661048236600461258c565b610ea6565b610256610f45565b5f6001600160e01b031982166312563ca960e21b14806104bf57506301ffc9a760e01b6001600160e01b03198316145b92915050565b6060600380546104d4906125c6565b80601f0160208091040260200160405190810160405280929190818152602001828054610500906125c6565b801561054b5780601f106105225761010080835404028352916020019161054b565b820191905f5260205f20905b81548152906001019060200180831161052e57829003601f168201915b5050505050905090565b905090565b5f6105a4338661059f8787878080601f0160208091040260200160405190810160405280939291908181526020018383808284375f92019190915250610ffa92505050565b611060565b95945050505050565b5f6105b88833610b58565b883390916105f157604051630f3e596760e31b81526001600160a01b039283166004820152911660248201526044015b60405180910390fd5b505061063e88886106378989898080601f0160208091040260200160405190810160405280939291908181526020018383808284375f92019190915250610ffa92505050565b86866110de565b905061064a8133611135565b50979650505050505050565b5f6106618433611158565b84339091610694576040516367cfe80560e01b815260048101929092526001600160a01b031660248201526044016105e8565b50506106a333868686866110de565b90506106af8133611135565b50949350505050565b5f848152600660205260409020546001600160a01b031684816106f1576040516368b187c760e11b81526004016105e891815260200190565b505f85815260066020526040808220805473ffffffffffffffffffffffffffffffffffffffff19169055805160018082528183019092529081602001602082028036833701905050905085815f8151811061074e5761074e6125fe565b6020026020010181815250505f8560405160200161077c919067ffffffffffffffff91909116815260200190565b60408051601f198184030181526020601f880181900481028401810190925286835292506107c891849184919089908990819084018382808284375f9201919091525061116392505050565b6108267f0000000000000000000000000000000000000000000000000000000000000000846108217f000000000000000000000000000000000000000000000000000000000000000067ffffffffffffffff8b16612626565b6111ce565b6040805188815267ffffffffffffffff881660208201526001600160a01b038516917f2d4edf3c2943002120f53dab3f8940043f34799f4a92ab90f2f81f7dd004a49e910160405180910390a250505050505050565b5f6108878233611158565b823390916108ba576040516367cfe80560e01b815260048101929092526001600160a01b031660248201526044016105e8565b50506108c7338484611060565b9392505050565b61091785856109128686868080601f0160208091040260200160405190810160405280939291908181526020018383808284375f92019190915250610ffa92505050565b611242565b5050505050565b5f336001600160a01b037f00000000000000000000000000000000000000000000000000000000000000001681146109755760405163782c6ffd60e01b81526001600160a01b0390911660048201526024016105e8565b505f6014831061099157610989838561263d565b60601c610993565b855b90506109d8816109d36109ce6109c97f00000000000000000000000000000000000000000000000000000000000000008a61269e565b611374565b6113ae565b6113c4565b505f610a047f0000000000000000000000000000000000000000000000000000000000000000876126b1565b90508015610a3757610a377f000000000000000000000000000000000000000000000000000000000000000088836111ce565b50632229f29760e21b979650505050505050565b5f610555611405565b6060600480546104d4906125c6565b6040805160018082528183019092525f916020808301908036833701905050905084815f81518110610a9757610a976125fe565b6020026020010181815250505f84604051602001610ac5919067ffffffffffffffff91909116815260200190565b60408051601f198184030181526020601f87018190048102840181019092528583529250610b1191849184919088908890819084018382808284375f9201919091525061116392505050565b60405167ffffffffffffffff8616815286907f83bbbc07896439e5d950a6cead04cbc676180af7a61cecf43f5296475057f5719060200160405180910390a2505050505050565b5f816001600160a01b0316836001600160a01b031614806108c75750506001600160a01b039182165f90815260016020908152604080832093909416825291909152205465ffffffffffff1642111590565b610c097f00000000000000000000000000000000000000000000000000000000000000003330610bfa7f0000000000000000000000000000000000000000000000000000000000000000866126b1565b610c0490866126c4565b611439565b610c3d826109d36109ce6109c97f00000000000000000000000000000000000000000000000000000000000000008661269e565b505050565b5f610c4d8433611158565b84339091610c80576040516367cfe80560e01b815260048101929092526001600160a01b031660248201526044016105e8565b5050610c8c8633610b58565b86339091610cc057604051630f3e596760e31b81526001600160a01b039283166004820152911660248201526044016105e8565b5050610ccf86868686866110de565b9050610cdb8133611135565b5095945050505050565b610cf0338383611478565b5050565b610cfe8133611158565b81339091610d31576040516367cfe80560e01b815260048101929092526001600160a01b031660248201526044016105e8565b5050610d3c816114ef565b50604051339082907f189c3bfae2e5ce7726b29d57bb6ed0f1a7ebcd153a863ff5ecb6cd998064c98c905f90a350565b5f610db133886106378989898080601f0160208091040260200160405190810160405280939291908181526020018383808284375f92019190915250610ffa92505050565b9050610dbd8133611135565b509695505050505050565b5f610dd38633610b58565b86339091610e0757604051630f3e596760e31b81526001600160a01b039283166004820152911660248201526044016105e8565b5050610ccf868661059f8787878080601f0160208091040260200160405190810160405280939291908181526020018383808284375f92019190915250610ffa92505050565b6060600580546104d4906125c6565b610e668133611158565b81339091610e99576040516367cfe80560e01b815260048101929092526001600160a01b031660248201526044016105e8565b5050610c3d838383611242565b5f610eb18233611158565b82339091610ee4576040516367cfe80560e01b815260048101929092526001600160a01b031660248201526044016105e8565b5050610ef08433610b58565b84339091610f2457604051630f3e596760e31b81526001600160a01b039283166004820152911660248201526044016105e8565b5050610f31848484611060565b9050610f3d8133611135565b509392505050565b5f7f00000000000000000000000000000000000000000000000000000000000000007f00000000000000000000000000000000000000000000000000000000000000006040516370a0823160e01b81523060048201526001600160a01b0391909116906370a0823190602401602060405180830381865afa158015610fcc573d5f5f3e3d5ffd5b505050506040513d601f19601f82011682018060405250810190610ff091906126d7565b610555919061269e565b5f81515f146110165761100f8383600561150a565b90506104bf565b825f819003611030576110285f6113ae565b9150506104bf565b61103a8133611617565b61100f57604051630276b5d960e01b8152600481018290523360248201526044016105e8565b5f806001600160a01b0385166110955760405163ee457ebf60e01b81526001600160a01b0390911660048201526024016105e8565b505f6001600160a01b0384166110ca57604051638d51880160e01b81526001600160a01b0390911660048201526024016105e8565b506110d684848461169b565b949350505050565b5f5f6110eb878787611060565b90505f6110fc3389898589896116bd565b90505f61111c888a611117856111115f6113ae565b886117c1565b61169b565b90506111288382611800565b9998505050505050505050565b5f82611147576111445f6113ae565b92505b611151838361182e565b5090919050565b5f6108c78383611617565b5f61116f8484846118a2565b90508061118f5760405163cf6c44e960e01b815260040160405180910390fd5b7fc6366bab028b8d033cb362cfd1f2f3457ef4e92fc738b6788b90d5a7846367a084846040516111c0929190612728565b60405180910390a150505050565b6040516001600160a01b03838116602483015260448201839052610c3d91859182169063a9059cbb906064015b604051602081830303815290604052915060e01b6020820180517bffffffffffffffffffffffffffffffffffffffffffffffffffffffff8381831617835250505050611946565b816001600160a01b03811661127657604051638d51880160e01b81526001600160a01b0390911660048201526024016105e8565b506001600160a01b03831633148061129357506112938333610b58565b833390916112c757604051630f3e596760e31b81526001600160a01b039283166004820152911660248201526044016105e8565b50505f6112d484836119b2565b90506112df816114ef565b505f818152600660205260409020546001600160a01b0316156113045761130461274c565b5f81815260066020908152604091829020805473ffffffffffffffffffffffffffffffffffffffff19166001600160a01b03871690811790915591518381527f77d02d353c5629272875d11f1b34ec4c65d7430b075575b78cd2502034c469ee910160405180910390a250505050565b5f67ffffffffffffffff8211156113aa57604080516306dfcc6560e41b81526004810191909152602481018390526044016105e8565b5090565b5f6104bf8267ffffffffffffffff1660056119f3565b5f806001600160a01b0384166113f957604051638d51880160e01b81526001600160a01b0390911660048201526024016105e8565b506108c75f848461169b565b5f466001036114145750600190565b4662aa36a703611425575061271190565b46617a690361143457505f1990565b505f90565b6040516001600160a01b0384811660248301528381166044830152606482018390526114729186918216906323b872dd906084016111fb565b50505050565b6001600160a01b038381165f81815260016020908152604080832094871680845294825291829020805465ffffffffffff191665ffffffffffff871690811790915591519182527f921a218a75d18e8ec5704851e6b234a85725b21a2521ce889622c35dedc1fa12910160405180910390a3505050565b5f81611501576114fe5f6113ae565b91505b6113aa82611a95565b7f9e7b61f58c47dc699ac88507c4f5bb9f121c03808c5676a8078fe583e46497015460405163045fc19560e11b81525f915f5160206128895f395f51905f52916001600160a01b03909116906308bf832a90611570908890339089908990600401612780565b6020604051808303815f875af115801561158c573d5f5f3e3d5ffd5b505050506040513d601f19601f820116820180604052508101906115b091906126d7565b8154604051630f8e573b60e21b8152600481018390523360248201529193506001600160a01b031690633e395cec906044015f604051808303815f87803b1580156115f9575f5ffd5b505af115801561160b573d5f5f3e3d5ffd5b50505050509392505050565b5f805f5160206128895f395f51905f5280546040516382027b6d60e01b8152600481018790526001600160a01b0386811660248301529293509116906382027b6d90604401602060405180830381865afa158015611677573d5f5f3e3d5ffd5b505050506040513d601f19601f820116820180604052508101906110d691906127b6565b5f6001600160a01b0384166116b2576116b2611b13565b6110d6848484611b45565b5f6001600160a01b0385163b156117aa576040516346083bfd60e01b81526001600160a01b038616906346083bfd90611702908a908a908990899089906004016127d5565b6020604051808303815f875af192505050801561173c575060408051601f3d908101601f19168201909252611739918101906126d7565b60015b6117a3573d808015611769576040519150601f19603f3d011682016040523d82523d5f602084013e61176e565b606091505b5080515f0361179b57604051638d51880160e01b81526001600160a01b03871660048201526024016105e8565b805181602001fd5b90506117b7565b6117b46001611d22565b90505b9695505050505050565b5f836117d3576117d05f611d22565b93505b826117e4576117e15f6113ae565b92505b816117f5576117f25f6113ae565b91505b6110d6848484611d3d565b5f826118125761180f5f6113ae565b92505b81611823576118205f6113ae565b91505b6108c783835f611dca565b5f5160206128895f395f51905f528054604051630f8e573b60e21b8152600481018590526001600160a01b03848116602483015290911690633e395cec906044015b5f604051808303815f87803b158015611887575f5ffd5b505af1158015611899573d5f5f3e3d5ffd5b50505050505050565b7f9e7b61f58c47dc699ac88507c4f5bb9f121c03808c5676a8078fe583e4649702546040516378542ead60e01b81525f915f5160206128895f395f51905f52916001600160a01b03909116906378542ead906119069088908890889060040161282a565b6020604051808303815f875af1158015611922573d5f5f3e3d5ffd5b505050506040513d601f19601f820116820180604052508101906105a491906127b6565b5f5f60205f8451602086015f885af180611965576040513d5f823e3d81fd5b50505f513d9150811561197c578060011415611989565b6001600160a01b0384163b155b1561147257604051635274afe760e01b81526001600160a01b03851660048201526024016105e8565b5f806001600160a01b0384166119e75760405163ee457ebf60e01b81526001600160a01b0390911660048201526024016105e8565b506108c7835f8461169b565b7f9e7b61f58c47dc699ac88507c4f5bb9f121c03808c5676a8078fe583e464970154604051639cd07acb60e01b81525f915f5160206128895f395f51905f52916001600160a01b0390911690639cd07acb90611a559087908790600401612862565b6020604051808303815f875af1158015611a71573d5f5f3e3d5ffd5b505050506040513d601f19601f820116820180604052508101906110d691906126d7565b6040805160018082528183019092525f5160206128895f395f51905f52915f91906020808301908036833701905050905082815f81518110611ad957611ad96125fe565b60209081029190910101528154604051637d6e912360e11b81526001600160a01b039091169063fadd224690611870908490600401612876565b67ffffffffffffffff611b24610f45565b1115611b435760405163a9e53fc360e01b815260040160405180910390fd5b565b5f80806001600160a01b038616611b7b57611b6260025485611e90565b9092509050611b7081611eda565b506002819055611bff565b6001600160a01b0386165f908152602081905260409020548681611bbe576040516317fe473760e21b81526001600160a01b0390911660048201526024016105e8565b50611bc98186611ef6565b9093509150611bd782611eda565b50611be28288611f5b565b50506001600160a01b0386165f9081526020819052604090208190555b611c128285611c0d5f6113ae565b6117c1565b92506001600160a01b038516611c4457611c2e60025484611800565b9050611c3981611eda565b506002819055611c98565b6001600160a01b0385165f90815260208190526040902054611c669084611f77565b9050611c7181611eda565b50611c7c8186611f5b565b506001600160a01b0385165f9081526020819052604090208190555b6001600160a01b03861615611cb357611cb18387611f5b565b505b6001600160a01b03851615611cce57611ccc8386611f5b565b505b611cd783611eda565b5082856001600160a01b0316876001600160a01b03167f67500e8d0ed826d2194f514dd0d8124f35648ab6e3fb5e6ed867134cffe661e960405160405180910390a450509392505050565b5f6104bf82611d31575f611d34565b60015b60ff165f6119f3565b5f805f5160206128895f395f51905f526001810154604051637702dcff60e01b81526004810188905260248101879052604481018690529192506001600160a01b031690637702dcff906064016020604051808303815f875af1158015611da6573d5f5f3e3d5ffd5b505050506040513d601f19601f820116820180604052508101906105a491906126d7565b5f5f8215611ddd5750600160f81b611de0565b505f5b7f9e7b61f58c47dc699ac88507c4f5bb9f121c03808c5676a8078fe583e4649701546040516303056db360e31b815260048101879052602481018690526001600160f81b0319831660448201525f5160206128895f395f51905f52916001600160a01b03169063182b6d98906064015b6020604051808303815f875af1158015611e6c573d5f5f3e3d5ffd5b505050506040513d601f19601f820116820180604052508101906117b791906126d7565b5f8083611eab57611ea16001611d22565b8391509150611ed3565b5f611eb68585611f77565b9050611ec28186611fa5565b9250611ecf8382876117c1565b9150505b9250929050565b5f81611eec57611ee95f6113ae565b91505b6113aa8230611fd3565b5f8083611f325782611f1657611f0c6001611d22565b8491509150611ed3565b611f20835f612019565b611f295f6113ae565b91509150611ed3565b611f3c8484611fa5565b9150611f5282611f4c8686611800565b866117c1565b90509250929050565b5f82611f6d57611f6a5f6113ae565b92505b6111518383611fd3565b5f82611f8957611f865f6113ae565b92505b81611f9a57611f975f6113ae565b91505b6108c783835f612041565b5f82611fb757611fb45f6113ae565b92505b81611fc857611fc55f6113ae565b91505b6108c783835f6120cb565b5f5160206128895f395f51905f528054604051635ca4b5b160e11b8152600481018590526001600160a01b0384811660248301529091169063b9496b6290604401611870565b5f8261202b576120285f6113ae565b92505b6108c78367ffffffffffffffff84166001612155565b5f5f82156120545750600160f81b612057565b505f5b7f9e7b61f58c47dc699ac88507c4f5bb9f121c03808c5676a8078fe583e46497015460405163022f65e760e31b815260048101879052602481018690526001600160f81b0319831660448201525f5160206128895f395f51905f52916001600160a01b03169063117b2f3890606401611e50565b5f5f82156120de5750600160f81b6120e1565b505f5b7f9e7b61f58c47dc699ac88507c4f5bb9f121c03808c5676a8078fe583e464970154604051631391547f60e01b815260048101879052602481018690526001600160f81b0319831660448201525f5160206128895f395f51905f52916001600160a01b031690631391547f90606401611e50565b5f5f82156121685750600160f81b61216b565b505f5b7f9e7b61f58c47dc699ac88507c4f5bb9f121c03808c5676a8078fe583e46497015460405163f77f3f1d60e01b815260048101879052602481018690526001600160f81b0319831660448201525f5160206128895f395f51905f52916001600160a01b03169063f77f3f1d90606401611e50565b5f602082840312156121ef575f5ffd5b81356001600160e01b0319811681146108c7575f5ffd5b5f81518084528060208401602086015e5f602082860101526020601f19601f83011685010191505092915050565b602081525f6108c76020830184612206565b80356001600160a01b038116811461225c575f5ffd5b919050565b5f5f83601f840112612271575f5ffd5b50813567ffffffffffffffff811115612288575f5ffd5b602083019150836020828501011115611ed3575f5ffd5b5f5f5f5f606085870312156122b2575f5ffd5b6122bb85612246565b935060208501359250604085013567ffffffffffffffff8111156122dd575f5ffd5b6122e987828801612261565b95989497509550505050565b5f60208284031215612305575f5ffd5b6108c782612246565b5f5f5f5f5f5f5f60a0888a031215612324575f5ffd5b61232d88612246565b965061233b60208901612246565b955060408801359450606088013567ffffffffffffffff81111561235d575f5ffd5b6123698a828b01612261565b909550935050608088013567ffffffffffffffff811115612388575f5ffd5b6123948a828b01612261565b989b979a50959850939692959293505050565b5f5f5f5f606085870312156123ba575f5ffd5b84359350602085013567ffffffffffffffff811681146123d8575f5ffd5b9250604085013567ffffffffffffffff8111156122dd575f5ffd5b5f5f60408385031215612404575f5ffd5b61240d83612246565b946020939093013593505050565b5f5f5f5f5f6080868803121561242f575f5ffd5b61243886612246565b945061244660208701612246565b935060408601359250606086013567ffffffffffffffff811115612468575f5ffd5b61247488828901612261565b969995985093965092949392505050565b5f5f60408385031215612496575f5ffd5b61249f83612246565b9150611f5260208401612246565b5f5f604083850312156124be575f5ffd5b6124c783612246565b9150602083013565ffffffffffff811681146124e1575f5ffd5b809150509250929050565b5f602082840312156124fc575f5ffd5b5035919050565b5f5f5f5f5f5f60808789031215612518575f5ffd5b61252187612246565b955060208701359450604087013567ffffffffffffffff811115612543575f5ffd5b61254f89828a01612261565b909550935050606087013567ffffffffffffffff81111561256e575f5ffd5b61257a89828a01612261565b979a9699509497509295939492505050565b5f5f5f6060848603121561259e575f5ffd5b6125a784612246565b92506125b560208501612246565b929592945050506040919091013590565b600181811c908216806125da57607f821691505b6020821081036125f857634e487b7160e01b5f52602260045260245ffd5b50919050565b634e487b7160e01b5f52603260045260245ffd5b634e487b7160e01b5f52601160045260245ffd5b80820281158282048414176104bf576104bf612612565b80356bffffffffffffffffffffffff198116906014841015612683576bffffffffffffffffffffffff196bffffffffffffffffffffffff198560140360031b1b82161691505b5092915050565b634e487b7160e01b5f52601260045260245ffd5b5f826126ac576126ac61268a565b500490565b5f826126bf576126bf61268a565b500690565b818103818111156104bf576104bf612612565b5f602082840312156126e7575f5ffd5b5051919050565b5f8151808452602084019350602083015f5b8281101561271e578151865260209586019590910190600101612700565b5093949350505050565b604081525f61273a60408301856126ee565b82810360208401526105a48185612206565b634e487b7160e01b5f52600160045260245ffd5b6054811061277c57634e487b7160e01b5f52602160045260245ffd5b9052565b8481526001600160a01b0384166020820152608060408201525f6127a76080830185612206565b90506105a46060830184612760565b5f602082840312156127c6575f5ffd5b815180151581146108c7575f5ffd5b6001600160a01b03861681526001600160a01b038516602082015283604082015260806060820152816080820152818360a08301375f81830160a090810191909152601f909201601f19160101949350505050565b606081525f61283c60608301866126ee565b828103602084015261284e8186612206565b905082810360408401526117b78185612206565b828152604081016108c76020830184612760565b602081525f6108c760208301846126ee56fe9e7b61f58c47dc699ac88507c4f5bb9f121c03808c5676a8078fe583e4649700a164736f6c634300081b000a697066733a2f2f516d436f6e666964656e7469616c555344434d65746164617461",
  "linkReferences": {},
  "deployedLinkReferences": {}
}